{
  "contractName": "Paillier_vote",
  "abi": [
    {
      "inputs": [],
      "payable": true,
      "stateMutability": "payable",
      "type": "constructor"
    },
    {
      "anonymous": false,
      "inputs": [
        {
          "indexed": false,
          "name": "tally_count",
          "type": "uint256[]"
        }
      ],
      "name": "Get_result",
      "type": "event"
    },
    {
      "constant": false,
      "inputs": [
        {
          "name": "n",
          "type": "uint256"
        }
      ],
      "name": "set_publickey",
      "outputs": [],
      "payable": false,
      "stateMutability": "nonpayable",
      "type": "function"
    },
    {
      "constant": false,
      "inputs": [
        {
          "name": "caddrs",
          "type": "address[]"
        }
      ],
      "name": "add_candidates",
      "outputs": [
        {
          "name": "",
          "type": "address"
        }
      ],
      "payable": true,
      "stateMutability": "payable",
      "type": "function"
    },
    {
      "constant": false,
      "inputs": [
        {
          "name": "vaddrs",
          "type": "address[]"
        }
      ],
      "name": "add_voters",
      "outputs": [],
      "payable": false,
      "stateMutability": "nonpayable",
      "type": "function"
    },
    {
      "constant": false,
      "inputs": [
        {
          "name": "candidate_address",
          "type": "address[]"
        },
        {
          "name": "Evotes",
          "type": "uint256[]"
        }
      ],
      "name": "votes",
      "outputs": [],
      "payable": false,
      "stateMutability": "nonpayable",
      "type": "function"
    },
    {
      "constant": false,
      "inputs": [],
      "name": "tally",
      "outputs": [
        {
          "name": "",
          "type": "uint256[]"
        },
        {
          "name": "",
          "type": "uint256"
        }
      ],
      "payable": false,
      "stateMutability": "nonpayable",
      "type": "function"
    },
    {
      "constant": false,
      "inputs": [],
      "name": "clear_vote",
      "outputs": [],
      "payable": false,
      "stateMutability": "nonpayable",
      "type": "function"
    }
  ],
  "bytecode": "0x608060405233600160006101000a81548173ffffffffffffffffffffffffffffffffffffffff021916908373ffffffffffffffffffffffffffffffffffffffff160217905550610fac806100546000396000f3fe608060405260043610610078576000357c0100000000000000000000000000000000000000000000000000000000900463ffffffff16806314b221041461007d57806315e05999146100b85780632442e6641461017d5780633a31bb5814610194578063410673e51461028c578063b8bb80cd146102ff575b600080fd5b34801561008957600080fd5b506100b6600480360360208110156100a057600080fd5b8101908080359060200190929190505050610458565b005b3480156100c457600080fd5b5061017b600480360360208110156100db57600080fd5b81019080803590602001906401000000008111156100f857600080fd5b82018360208201111561010a57600080fd5b8035906020019184602083028401116401000000008311171561012c57600080fd5b919080806020026020016040519081016040528093929190818152602001838360200280828437600081840152601f19601f8201169050808301925050505050505091929192905050506104c7565b005b34801561018957600080fd5b506101926106ce565b005b61024a600480360360208110156101aa57600080fd5b81019080803590602001906401000000008111156101c757600080fd5b8201836020820111156101d957600080fd5b803590602001918460208302840111640100000000831117156101fb57600080fd5b919080806020026020016040519081016040528093929190818152602001838360200280828437600081840152601f19601f8201169050808301925050505050505091929192905050506108cb565b604051808273ffffffffffffffffffffffffffffffffffffffff1673ffffffffffffffffffffffffffffffffffffffff16815260200191505060405180910390f35b34801561029857600080fd5b506102a1610a99565b6040518080602001838152602001828103825284818151815260200191508051906020019060200280838360005b838110156102ea5780820151818401526020810190506102cf565b50505050905001935050505060405180910390f35b34801561030b57600080fd5b506104566004803603604081101561032257600080fd5b810190808035906020019064010000000081111561033f57600080fd5b82018360208201111561035157600080fd5b8035906020019184602083028401116401000000008311171561037357600080fd5b919080806020026020016040519081016040528093929190818152602001838360200280828437600081840152601f19601f820116905080830192505050505050509192919290803590602001906401000000008111156103d357600080fd5b8201836020820111156103e557600080fd5b8035906020019184602083028401116401000000008311171561040757600080fd5b919080806020026020016040519081016040528093929190818152602001838360200280828437600081840152601f19601f820116905080830192505050505050509192919290505050610ca6565b005b600160009054906101000a900473ffffffffffffffffffffffffffffffffffffffff1673ffffffffffffffffffffffffffffffffffffffff163373ffffffffffffffffffffffffffffffffffffffff161415156104b457600080fd5b8060068190555080810260078190555050565b600160009054906101000a900473ffffffffffffffffffffffffffffffffffffffff1673ffffffffffffffffffffffffffffffffffffffff163373ffffffffffffffffffffffffffffffffffffffff1614151561052357600080fd5b60008090505b81518110156106ca57600160026000848481518110151561054657fe5b9060200190602002015173ffffffffffffffffffffffffffffffffffffffff1673ffffffffffffffffffffffffffffffffffffffff16815260200190815260200160002060000181905550818181518110151561059f57fe5b906020019060200201516002600084848151811015156105bb57fe5b9060200190602002015173ffffffffffffffffffffffffffffffffffffffff1673ffffffffffffffffffffffffffffffffffffffff16815260200190815260200160002060010160006101000a81548173ffffffffffffffffffffffffffffffffffffffff021916908373ffffffffffffffffffffffffffffffffffffffff1602179055506005828281518110151561065057fe5b9060200190602002015190806001815401808255809150509060018203906000526020600020016000909192909190916101000a81548173ffffffffffffffffffffffffffffffffffffffff021916908373ffffffffffffffffffffffffffffffffffffffff160217905550508080600101915050610529565b5050565b600160009054906101000a900473ffffffffffffffffffffffffffffffffffffffff1673ffffffffffffffffffffffffffffffffffffffff163373ffffffffffffffffffffffffffffffffffffffff1614151561072a57600080fd5b60008090505b6004805490508110156107e1576003600060048381548110151561075057fe5b9060005260206000200160009054906101000a900473ffffffffffffffffffffffffffffffffffffffff1673ffffffffffffffffffffffffffffffffffffffff1673ffffffffffffffffffffffffffffffffffffffff1681526020019081526020016000206000808201600090556001820160006101000a81549060ff021916905550508080600101915050610730565b5060008090505b6005805490508110156108ac576002600060058381548110151561080857fe5b9060005260206000200160009054906101000a900473ffffffffffffffffffffffffffffffffffffffff1673ffffffffffffffffffffffffffffffffffffffff1673ffffffffffffffffffffffffffffffffffffffff1681526020019081526020016000206000808201600090556001820160006101000a81549073ffffffffffffffffffffffffffffffffffffffff0219169055505080806001019150506107e8565b50600460006108bb9190610f19565b600560006108c99190610f19565b565b6000600160009054906101000a900473ffffffffffffffffffffffffffffffffffffffff1673ffffffffffffffffffffffffffffffffffffffff163373ffffffffffffffffffffffffffffffffffffffff1614151561092957600080fd5b60008090505b8251811015610a9357600060036000858481518110151561094c57fe5b9060200190602002015173ffffffffffffffffffffffffffffffffffffffff1673ffffffffffffffffffffffffffffffffffffffff1681526020019081526020016000206000018190555060006003600085848151811015156109ab57fe5b9060200190602002015173ffffffffffffffffffffffffffffffffffffffff1673ffffffffffffffffffffffffffffffffffffffff16815260200190815260200160002060010160006101000a81548160ff02191690831515021790555060048382815181101515610a1957fe5b9060200190602002015190806001815401808255809150509060018203906000526020600020016000909192909190916101000a81548173ffffffffffffffffffffffffffffffffffffffff021916908373ffffffffffffffffffffffffffffffffffffffff16021790555050808060010191505061092f565b50919050565b60606000600160009054906101000a900473ffffffffffffffffffffffffffffffffffffffff1673ffffffffffffffffffffffffffffffffffffffff163373ffffffffffffffffffffffffffffffffffffffff16141515610af957600080fd5b600080610b069190610f3a565b60008090505b600480549050811015610bcd57600060036000600484815481101515610b2e57fe5b9060005260206000200160009054906101000a900473ffffffffffffffffffffffffffffffffffffffff1673ffffffffffffffffffffffffffffffffffffffff1673ffffffffffffffffffffffffffffffffffffffff1681526020019081526020016000206000015490806001815401808255809150509060018203906000526020600020016000909192909190915055508080600101915050610b0c565b507fe1acfb35accfd33f5a784cb1835ffe808f486e4ee339edb03522cee20955a1de600060405180806020018281038252838181548152602001915080548015610c3657602002820191906000526020600020905b815481526020019060010190808311610c22575b50509250505060405180910390a1600060058054905081805480602002602001604051908101604052809291908181526020018280548015610c9757602002820191906000526020600020905b815481526020019060010190808311610c83575b50505050509150915091509091565b6000600260003373ffffffffffffffffffffffffffffffffffffffff1673ffffffffffffffffffffffffffffffffffffffff16815260200190815260200160002060000154131515610cf757600080fd5b60008090505b8251811015610ecc576000600360008584815181101515610d1a57fe5b9060200190602002015173ffffffffffffffffffffffffffffffffffffffff1673ffffffffffffffffffffffffffffffffffffffff168152602001908152602001600020600001541415610de2578181815181101515610d7657fe5b90602001906020020151600360008584815181101515610d9257fe5b9060200190602002015173ffffffffffffffffffffffffffffffffffffffff1673ffffffffffffffffffffffffffffffffffffffff16815260200190815260200160002060000181905550610ebf565b600754801515610dee57fe5b8282815181101515610dfc57fe5b90602001906020020151600360008685815181101515610e1857fe5b9060200190602002015173ffffffffffffffffffffffffffffffffffffffff1673ffffffffffffffffffffffffffffffffffffffff1681526020019081526020016000206000015409600360008584815181101515610e7357fe5b9060200190602002015173ffffffffffffffffffffffffffffffffffffffff1673ffffffffffffffffffffffffffffffffffffffff168152602001908152602001600020600001819055505b8080600101915050610cfd565b506000600260003373ffffffffffffffffffffffffffffffffffffffff1673ffffffffffffffffffffffffffffffffffffffff168152602001908152602001600020600001819055505050565b5080546000825590600052602060002090810190610f379190610f5b565b50565b5080546000825590600052602060002090810190610f589190610f5b565b50565b610f7d91905b80821115610f79576000816000905550600101610f61565b5090565b9056fea165627a7a72305820c3a7a9ad55458ef036aca8d31b3eee83de8053a1e239a2b5cb31c73acf066beb0029",
  "source": "pragma solidity ^ 0.5;\n\ncontract Paillier_vote{\n    \n    uint[] result;\n    //选举人\n    struct voter{\n        int vote;   //是否投票\n        address vaddr;\n    }\n    \n    //候选者\n    struct candidate {\n        uint count;     //统计票数\n        bool win;       //是否获胜\n    }   \n    \n    event Get_result(uint[] tally_count);\n    //管理者\n    address administrator;\n    \n    //选举人\n    mapping(address => voter) voters;\n    \n    //候选者\n    mapping(address => candidate) candidates;\n    address[] c_addr;\n    address[] v_addr;\n    //公钥\n    uint Publickey_n;\n    uint Publickey_n2;\n    \n    //函数修改器\n    modifier onlyOwner {\n        require(msg.sender == administrator);\n        _;\n    }\n    \n    modifier iseligible {\n        require(voters[msg.sender].vaddr!=address(0));\n        _;\n    }\n    \n    constructor () payable public {\n        administrator = msg.sender;\n    }\n    \n    function set_publickey(uint n) public onlyOwner {\n        Publickey_n = n;\n        Publickey_n2 = n*n;\n    }\n    \n    //管理者添加候选者\n    function add_candidates(address[] memory caddrs) payable public onlyOwner returns(address)  {\n        for(uint256 i=0;i<caddrs.length;i++) {\n            candidates[caddrs[i]].count =0;\n            candidates[caddrs[i]].win = false;\n            c_addr.push(caddrs[i]);\n        }\n    }\n    \n    //管理者添加投票人资格\n    function add_voters(address[] memory vaddrs) public onlyOwner {\n        for(uint256 i=0;i<vaddrs.length;i++) {\n            voters[vaddrs[i]].vote = 1; \n            voters[vaddrs[i]].vaddr = vaddrs[i];\n            v_addr.push(vaddrs[i]);\n        }\n    }\n    \n    function votes(address[] memory candidate_address,uint[] memory Evotes) public{\n        require(voters[msg.sender].vote >0);\n        for (uint i=0;i<candidate_address.length;i++){\n            if(candidates[candidate_address[i]].count == 0){\n                candidates[candidate_address[i]].count = Evotes[i];\n            }else{\n                candidates[candidate_address[i]].count = mulmod(candidates[candidate_address[i]].count,Evotes[i],Publickey_n2);\n            }\n        }\n        voters[msg.sender].vote = 0;\n    }\n    \n    function tally()  public onlyOwner returns(uint[] memory,uint){\n        delete result;\n        // uint winner_count;\n        for(uint i=0;i<c_addr.length;i++){\n            result.push(candidates[c_addr[i]].count);\n        }\n        emit Get_result(result);\n        return(result,v_addr.length);\n    }\n    \n    function clear_vote() public onlyOwner{\n        for(uint i=0;i<c_addr.length;i++){\n            delete candidates[c_addr[i]];\n        }\n        for(uint i=0;i<v_addr.length;i++){\n            delete voters[v_addr[i]];\n        }\n        delete c_addr;\n        delete v_addr;\n    }\n}\n",
  "sourcePath": "/home/sy/Dapp/paillier_vote/contracts/Paillier_vote.sol",
  "compiler": {
    "name": "solc",
    "version": "0.5.0+commit.1d4f565a.Emscripten.clang"
  },
  "schemaVersion": "3.0.9",
  "updatedAt": "2019-06-08T09:06:04.350Z",
  "devdoc": {
    "methods": {}
  },
  "userdoc": {
    "methods": {}
  }
}